{
  "_format": "hh-sol-artifact-1",
  "contractName": "SongRegister",
  "sourceName": "contracts/SongRegister.sol",
  "abi": [
    {
      "inputs": [
        {
          "internalType": "uint256",
          "name": "_cost",
          "type": "uint256"
        }
      ],
      "stateMutability": "nonpayable",
      "type": "constructor"
    },
    {
      "inputs": [],
      "name": "NotOwner",
      "type": "error"
    },
    {
      "inputs": [],
      "name": "Paused",
      "type": "error"
    },
    {
      "inputs": [],
      "name": "ValueMustBeEqualCost",
      "type": "error"
    },
    {
      "anonymous": false,
      "inputs": [
        {
          "indexed": true,
          "internalType": "address",
          "name": "songwriter",
          "type": "address"
        },
        {
          "indexed": false,
          "internalType": "string",
          "name": "songTitle",
          "type": "string"
        },
        {
          "indexed": false,
          "internalType": "string",
          "name": "songSignature",
          "type": "string"
        }
      ],
      "name": "Registered",
      "type": "event"
    },
    {
      "inputs": [],
      "name": "cost",
      "outputs": [
        {
          "internalType": "uint256",
          "name": "",
          "type": "uint256"
        }
      ],
      "stateMutability": "view",
      "type": "function"
    },
    {
      "inputs": [],
      "name": "getSongs",
      "outputs": [
        {
          "components": [
            {
              "internalType": "string",
              "name": "title",
              "type": "string"
            },
            {
              "internalType": "string",
              "name": "signature",
              "type": "string"
            }
          ],
          "internalType": "struct SongRegister.Song[]",
          "name": "",
          "type": "tuple[]"
        }
      ],
      "stateMutability": "view",
      "type": "function"
    },
    {
      "inputs": [],
      "name": "isPaused",
      "outputs": [
        {
          "internalType": "bool",
          "name": "",
          "type": "bool"
        }
      ],
      "stateMutability": "view",
      "type": "function"
    },
    {
      "inputs": [],
      "name": "owner",
      "outputs": [
        {
          "internalType": "address payable",
          "name": "",
          "type": "address"
        }
      ],
      "stateMutability": "view",
      "type": "function"
    },
    {
      "inputs": [
        {
          "internalType": "string",
          "name": "_title",
          "type": "string"
        },
        {
          "internalType": "string",
          "name": "_signature",
          "type": "string"
        }
      ],
      "name": "register",
      "outputs": [],
      "stateMutability": "payable",
      "type": "function"
    },
    {
      "inputs": [],
      "name": "switchIsPaused",
      "outputs": [],
      "stateMutability": "nonpayable",
      "type": "function"
    },
    {
      "inputs": [],
      "name": "withdraw",
      "outputs": [],
      "stateMutability": "nonpayable",
      "type": "function"
    }
  ],
  "bytecode": "0x60a060405234801561001057600080fd5b50604051610fc3380380610fc3833981810160405281019061003291906100d7565b33600160006101000a81548173ffffffffffffffffffffffffffffffffffffffff021916908373ffffffffffffffffffffffffffffffffffffffff1602179055506000600160146101000a81548160ff021916908315150217905550806080818152505050610104565b600080fd5b6000819050919050565b6100b4816100a1565b81146100bf57600080fd5b50565b6000815190506100d1816100ab565b92915050565b6000602082840312156100ed576100ec61009c565b5b60006100fb848285016100c2565b91505092915050565b608051610e9d6101266000396000818161016d01526102d00152610e9d6000f3fe6080604052600436106100705760003560e01c80635565f6601161004e5780635565f660146100d35780638da5cb5b146100fe578063b187bd2614610129578063baeafd931461015457610070565b806313faede6146100755780633ccfd60b146100a05780633ffbd47f146100b7575b600080fd5b34801561008157600080fd5b5061008a61016b565b604051610097919061077d565b60405180910390f35b3480156100ac57600080fd5b506100b561018f565b005b6100d160048036038101906100cc9190610807565b610281565b005b3480156100df57600080fd5b506100e86104b9565b6040516100f59190610a1e565b60405180910390f35b34801561010a57600080fd5b50610113610678565b6040516101209190610a81565b60405180910390f35b34801561013557600080fd5b5061013e61069e565b60405161014b9190610ab7565b60405180910390f35b34801561016057600080fd5b506101696106b1565b005b7f000000000000000000000000000000000000000000000000000000000000000081565b600160009054906101000a900473ffffffffffffffffffffffffffffffffffffffff1673ffffffffffffffffffffffffffffffffffffffff163373ffffffffffffffffffffffffffffffffffffffff1614610216576040517f30cd747100000000000000000000000000000000000000000000000000000000815260040160405180910390fd5b600160009054906101000a900473ffffffffffffffffffffffffffffffffffffffff1673ffffffffffffffffffffffffffffffffffffffff166108fc479081150290604051600060405180830381858888f1935050505015801561027e573d6000803e3d6000fd5b50565b60011515600160149054906101000a900460ff161515036102ce576040517f9e87fac800000000000000000000000000000000000000000000000000000000815260040160405180910390fd5b7f00000000000000000000000000000000000000000000000000000000000000003414610327576040517f2389101b00000000000000000000000000000000000000000000000000000000815260040160405180910390fd5b6000604051806040016040528086868080601f016020809104026020016040519081016040528093929190818152602001838380828437600081840152601f19601f82011690508083019250505050505050815260200184848080601f016020809104026020016040519081016040528093929190818152602001838380828437600081840152601f19601f8201169050808301925050505050505081525090506000803373ffffffffffffffffffffffffffffffffffffffff1673ffffffffffffffffffffffffffffffffffffffff16815260200190815260200160002081908060018154018082558091505060019003906000526020600020906002020160009091909190915060008201518160000190816104459190610d0d565b50602082015181600101908161045b9190610d0d565b5050503373ffffffffffffffffffffffffffffffffffffffff167f80788e6e1951532975ceb5ca698dfbf35d3a99bc9c440d8e1bb7301534ab72a2868686866040516104aa9493929190610e2c565b60405180910390a25050505050565b60606000803373ffffffffffffffffffffffffffffffffffffffff1673ffffffffffffffffffffffffffffffffffffffff168152602001908152602001600020805480602002602001604051908101604052809291908181526020016000905b8282101561066f578382906000526020600020906002020160405180604001604052908160008201805461054c90610b30565b80601f016020809104026020016040519081016040528092919081815260200182805461057890610b30565b80156105c55780601f1061059a576101008083540402835291602001916105c5565b820191906000526020600020905b8154815290600101906020018083116105a857829003601f168201915b505050505081526020016001820180546105de90610b30565b80601f016020809104026020016040519081016040528092919081815260200182805461060a90610b30565b80156106575780601f1061062c57610100808354040283529160200191610657565b820191906000526020600020905b81548152906001019060200180831161063a57829003601f168201915b50505050508152505081526020019060010190610519565b50505050905090565b600160009054906101000a900473ffffffffffffffffffffffffffffffffffffffff1681565b600160149054906101000a900460ff1681565b600160009054906101000a900473ffffffffffffffffffffffffffffffffffffffff1673ffffffffffffffffffffffffffffffffffffffff163373ffffffffffffffffffffffffffffffffffffffff1614610738576040517f30cd747100000000000000000000000000000000000000000000000000000000815260040160405180910390fd5b600160149054906101000a900460ff1615600160146101000a81548160ff021916908315150217905550565b6000819050919050565b61077781610764565b82525050565b6000602082019050610792600083018461076e565b92915050565b600080fd5b600080fd5b600080fd5b600080fd5b600080fd5b60008083601f8401126107c7576107c66107a2565b5b8235905067ffffffffffffffff8111156107e4576107e36107a7565b5b602083019150836001820283011115610800576107ff6107ac565b5b9250929050565b6000806000806040858703121561082157610820610798565b5b600085013567ffffffffffffffff81111561083f5761083e61079d565b5b61084b878288016107b1565b9450945050602085013567ffffffffffffffff81111561086e5761086d61079d565b5b61087a878288016107b1565b925092505092959194509250565b600081519050919050565b600082825260208201905092915050565b6000819050602082019050919050565b600081519050919050565b600082825260208201905092915050565b60005b838110156108ee5780820151818401526020810190506108d3565b60008484015250505050565b6000601f19601f8301169050919050565b6000610916826108b4565b61092081856108bf565b93506109308185602086016108d0565b610939816108fa565b840191505092915050565b60006040830160008301518482036000860152610961828261090b565b9150506020830151848203602086015261097b828261090b565b9150508091505092915050565b60006109948383610944565b905092915050565b6000602082019050919050565b60006109b482610888565b6109be8185610893565b9350836020820285016109d0856108a4565b8060005b85811015610a0c57848403895281516109ed8582610988565b94506109f88361099c565b925060208a019950506001810190506109d4565b50829750879550505050505092915050565b60006020820190508181036000830152610a3881846109a9565b905092915050565b600073ffffffffffffffffffffffffffffffffffffffff82169050919050565b6000610a6b82610a40565b9050919050565b610a7b81610a60565b82525050565b6000602082019050610a966000830184610a72565b92915050565b60008115159050919050565b610ab181610a9c565b82525050565b6000602082019050610acc6000830184610aa8565b92915050565b7f4e487b7100000000000000000000000000000000000000000000000000000000600052604160045260246000fd5b7f4e487b7100000000000000000000000000000000000000000000000000000000600052602260045260246000fd5b60006002820490506001821680610b4857607f821691505b602082108103610b5b57610b5a610b01565b5b50919050565b60008190508160005260206000209050919050565b60006020601f8301049050919050565b600082821b905092915050565b600060088302610bc37fffffffffffffffffffffffffffffffffffffffffffffffffffffffffffffffff82610b86565b610bcd8683610b86565b95508019841693508086168417925050509392505050565b6000819050919050565b6000610c0a610c05610c0084610764565b610be5565b610764565b9050919050565b6000819050919050565b610c2483610bef565b610c38610c3082610c11565b848454610b93565b825550505050565b600090565b610c4d610c40565b610c58818484610c1b565b505050565b5b81811015610c7c57610c71600082610c45565b600181019050610c5e565b5050565b601f821115610cc157610c9281610b61565b610c9b84610b76565b81016020851015610caa578190505b610cbe610cb685610b76565b830182610c5d565b50505b505050565b600082821c905092915050565b6000610ce460001984600802610cc6565b1980831691505092915050565b6000610cfd8383610cd3565b9150826002028217905092915050565b610d16826108b4565b67ffffffffffffffff811115610d2f57610d2e610ad2565b5b610d398254610b30565b610d44828285610c80565b600060209050601f831160018114610d775760008415610d65578287015190505b610d6f8582610cf1565b865550610dd7565b601f198416610d8586610b61565b60005b82811015610dad57848901518255600182019150602085019450602081019050610d88565b86831015610dca5784890151610dc6601f891682610cd3565b8355505b6001600288020188555050505b505050505050565b600082825260208201905092915050565b82818337600083830152505050565b6000610e0b8385610ddf565b9350610e18838584610df0565b610e21836108fa565b840190509392505050565b60006040820190508181036000830152610e47818688610dff565b90508181036020830152610e5c818486610dff565b90509594505050505056fea2646970667358221220d5f29183f2a97516bf77ee5828af1c0b72bec1471f612959393a9a97acd8c09864736f6c63430008180033",
  "linkReferences": {},
  "deployedLinkReferences": {}
}