{
  "_format": "hh-sol-artifact-1",
  "contractName": "SongRegister",
  "sourceName": "contracts/SongRegister.sol",
  "abi": [
    {
      "inputs": [
        {
          "internalType": "uint256",
          "name": "_cost",
          "type": "uint256"
        }
      ],
      "stateMutability": "nonpayable",
      "type": "constructor"
    },
    {
      "inputs": [],
      "name": "NoBalance",
      "type": "error"
    },
    {
      "inputs": [],
      "name": "NoFunds",
      "type": "error"
    },
    {
      "inputs": [],
      "name": "NotOwner",
      "type": "error"
    },
    {
      "inputs": [],
      "name": "Paused",
      "type": "error"
    },
    {
      "inputs": [],
      "name": "Unpaused",
      "type": "error"
    },
    {
      "anonymous": false,
      "inputs": [
        {
          "indexed": true,
          "internalType": "address",
          "name": "_account",
          "type": "address"
        },
        {
          "indexed": false,
          "internalType": "uint256",
          "name": "_deposit",
          "type": "uint256"
        },
        {
          "indexed": false,
          "internalType": "uint256",
          "name": "_balance",
          "type": "uint256"
        }
      ],
      "name": "Deposited",
      "type": "event"
    },
    {
      "anonymous": false,
      "inputs": [
        {
          "indexed": true,
          "internalType": "address",
          "name": "_writer",
          "type": "address"
        },
        {
          "indexed": false,
          "internalType": "string",
          "name": "_hash",
          "type": "string"
        }
      ],
      "name": "Registered",
      "type": "event"
    },
    {
      "inputs": [
        {
          "internalType": "address",
          "name": "",
          "type": "address"
        }
      ],
      "name": "balances",
      "outputs": [
        {
          "internalType": "uint256",
          "name": "",
          "type": "uint256"
        }
      ],
      "stateMutability": "view",
      "type": "function"
    },
    {
      "inputs": [],
      "name": "cost",
      "outputs": [
        {
          "internalType": "uint256",
          "name": "",
          "type": "uint256"
        }
      ],
      "stateMutability": "view",
      "type": "function"
    },
    {
      "inputs": [],
      "name": "deposit",
      "outputs": [],
      "stateMutability": "payable",
      "type": "function"
    },
    {
      "inputs": [
        {
          "internalType": "address",
          "name": "_songwriter",
          "type": "address"
        }
      ],
      "name": "getSongs",
      "outputs": [
        {
          "internalType": "string[]",
          "name": "",
          "type": "string[]"
        }
      ],
      "stateMutability": "view",
      "type": "function"
    },
    {
      "inputs": [],
      "name": "isPaused",
      "outputs": [
        {
          "internalType": "bool",
          "name": "",
          "type": "bool"
        }
      ],
      "stateMutability": "view",
      "type": "function"
    },
    {
      "inputs": [],
      "name": "owner",
      "outputs": [
        {
          "internalType": "address payable",
          "name": "",
          "type": "address"
        }
      ],
      "stateMutability": "view",
      "type": "function"
    },
    {
      "inputs": [],
      "name": "pause",
      "outputs": [],
      "stateMutability": "nonpayable",
      "type": "function"
    },
    {
      "inputs": [
        {
          "internalType": "string",
          "name": "_songHash",
          "type": "string"
        }
      ],
      "name": "register",
      "outputs": [],
      "stateMutability": "nonpayable",
      "type": "function"
    },
    {
      "inputs": [],
      "name": "unpause",
      "outputs": [],
      "stateMutability": "nonpayable",
      "type": "function"
    },
    {
      "inputs": [],
      "name": "withdraw",
      "outputs": [],
      "stateMutability": "nonpayable",
      "type": "function"
    }
  ],
  "bytecode": "0x60a06040523480156200001157600080fd5b5060405162001344380380620013448339818101604052810190620000379190620000e2565b33600260006101000a81548173ffffffffffffffffffffffffffffffffffffffff021916908373ffffffffffffffffffffffffffffffffffffffff1602179055506000600260146101000a81548160ff02191690831515021790555080608081815250505062000114565b600080fd5b6000819050919050565b620000bc81620000a7565b8114620000c857600080fd5b50565b600081519050620000dc81620000b1565b92915050565b600060208284031215620000fb57620000fa620000a2565b5b60006200010b84828501620000cb565b91505092915050565b6080516111ff620001456000396000818161020b015281816106b80152818161084601526108df01526111ff6000f3fe6080604052600436106100915760003560e01c80638456cb59116100595780638456cb59146101695780638da5cb5b14610180578063b187bd26146101ab578063d0e30db0146101d6578063f2c298be146101e057610091565b806313faede61461009657806327e235e3146100c15780633516d4eb146100fe5780633ccfd60b1461013b5780633f4ba83a14610152575b600080fd5b3480156100a257600080fd5b506100ab610209565b6040516100b89190610a3a565b60405180910390f35b3480156100cd57600080fd5b506100e860048036038101906100e39190610abd565b61022d565b6040516100f59190610a3a565b60405180910390f35b34801561010a57600080fd5b5061012560048036038101906101209190610abd565b610245565b6040516101329190610c3c565b60405180910390f35b34801561014757600080fd5b5061015061035c565b005b34801561015e57600080fd5b5061016761044e565b005b34801561017557600080fd5b5061017e61053f565b005b34801561018c57600080fd5b50610195610630565b6040516101a29190610c7f565b60405180910390f35b3480156101b757600080fd5b506101c0610656565b6040516101cd9190610cb5565b60405180910390f35b6101de610669565b005b3480156101ec57600080fd5b5061020760048036038101906102029190610d35565b6107f7565b005b7f000000000000000000000000000000000000000000000000000000000000000081565b60016020528060005260406000206000915090505481565b60606000808373ffffffffffffffffffffffffffffffffffffffff1673ffffffffffffffffffffffffffffffffffffffff168152602001908152602001600020805480602002602001604051908101604052809291908181526020016000905b828210156103515783829060005260206000200180546102c490610db1565b80601f01602080910402602001604051908101604052809291908181526020018280546102f090610db1565b801561033d5780601f106103125761010080835404028352916020019161033d565b820191906000526020600020905b81548152906001019060200180831161032057829003601f168201915b5050505050815260200190600101906102a5565b505050509050919050565b600260009054906101000a900473ffffffffffffffffffffffffffffffffffffffff1673ffffffffffffffffffffffffffffffffffffffff163373ffffffffffffffffffffffffffffffffffffffff16146103e3576040517f30cd747100000000000000000000000000000000000000000000000000000000815260040160405180910390fd5b600260009054906101000a900473ffffffffffffffffffffffffffffffffffffffff1673ffffffffffffffffffffffffffffffffffffffff166108fc479081150290604051600060405180830381858888f1935050505015801561044b573d6000803e3d6000fd5b50565b600260009054906101000a900473ffffffffffffffffffffffffffffffffffffffff1673ffffffffffffffffffffffffffffffffffffffff163373ffffffffffffffffffffffffffffffffffffffff16146104d5576040517f30cd747100000000000000000000000000000000000000000000000000000000815260040160405180910390fd5b60001515600260149054906101000a900460ff16151503610522576040517fa45f47fd00000000000000000000000000000000000000000000000000000000815260040160405180910390fd5b6000600260146101000a81548160ff021916908315150217905550565b600260009054906101000a900473ffffffffffffffffffffffffffffffffffffffff1673ffffffffffffffffffffffffffffffffffffffff163373ffffffffffffffffffffffffffffffffffffffff16146105c6576040517f30cd747100000000000000000000000000000000000000000000000000000000815260040160405180910390fd5b60011515600260149054906101000a900460ff16151503610613576040517f9e87fac800000000000000000000000000000000000000000000000000000000815260040160405180910390fd5b6001600260146101000a81548160ff021916908315150217905550565b600260009054906101000a900473ffffffffffffffffffffffffffffffffffffffff1681565b600260149054906101000a900460ff1681565b60011515600260149054906101000a900460ff161515036106b6576040517f9e87fac800000000000000000000000000000000000000000000000000000000815260040160405180910390fd5b7f0000000000000000000000000000000000000000000000000000000000000000341015610710576040517f43f9e11000000000000000000000000000000000000000000000000000000000815260040160405180910390fd5b34600160003373ffffffffffffffffffffffffffffffffffffffff1673ffffffffffffffffffffffffffffffffffffffff168152602001908152602001600020600082825461075f9190610e11565b925050819055503373ffffffffffffffffffffffffffffffffffffffff167f73a19dd210f1a7f902193214c0ee91dd35ee5b4d920cba8d519eca65a7b488ca34600160003373ffffffffffffffffffffffffffffffffffffffff1673ffffffffffffffffffffffffffffffffffffffff168152602001908152602001600020546040516107ed929190610e45565b60405180910390a2565b60011515600260149054906101000a900460ff16151503610844576040517f9e87fac800000000000000000000000000000000000000000000000000000000815260040160405180910390fd5b7f0000000000000000000000000000000000000000000000000000000000000000600160003373ffffffffffffffffffffffffffffffffffffffff1673ffffffffffffffffffffffffffffffffffffffff1681526020019081526020016000205410156108dd576040517fc2caa2a600000000000000000000000000000000000000000000000000000000815260040160405180910390fd5b7f0000000000000000000000000000000000000000000000000000000000000000600160003373ffffffffffffffffffffffffffffffffffffffff1673ffffffffffffffffffffffffffffffffffffffff168152602001908152602001600020600082825461094c9190610e6e565b925050819055506000803373ffffffffffffffffffffffffffffffffffffffff1673ffffffffffffffffffffffffffffffffffffffff1681526020019081526020016000208282909180600181540180825580915050600190039060005260206000200160009091929091929091929091925091826109cc929190611088565b503373ffffffffffffffffffffffffffffffffffffffff167fb3eccf73f39b1c07947c780b2b39df2a1bb058b4037b0a42d0881ca1a028a1328383604051610a159291906111a5565b60405180910390a25050565b6000819050919050565b610a3481610a21565b82525050565b6000602082019050610a4f6000830184610a2b565b92915050565b600080fd5b600080fd5b600073ffffffffffffffffffffffffffffffffffffffff82169050919050565b6000610a8a82610a5f565b9050919050565b610a9a81610a7f565b8114610aa557600080fd5b50565b600081359050610ab781610a91565b92915050565b600060208284031215610ad357610ad2610a55565b5b6000610ae184828501610aa8565b91505092915050565b600081519050919050565b600082825260208201905092915050565b6000819050602082019050919050565b600081519050919050565b600082825260208201905092915050565b60005b83811015610b50578082015181840152602081019050610b35565b60008484015250505050565b6000601f19601f8301169050919050565b6000610b7882610b16565b610b828185610b21565b9350610b92818560208601610b32565b610b9b81610b5c565b840191505092915050565b6000610bb28383610b6d565b905092915050565b6000602082019050919050565b6000610bd282610aea565b610bdc8185610af5565b935083602082028501610bee85610b06565b8060005b85811015610c2a5784840389528151610c0b8582610ba6565b9450610c1683610bba565b925060208a01995050600181019050610bf2565b50829750879550505050505092915050565b60006020820190508181036000830152610c568184610bc7565b905092915050565b6000610c6982610a5f565b9050919050565b610c7981610c5e565b82525050565b6000602082019050610c946000830184610c70565b92915050565b60008115159050919050565b610caf81610c9a565b82525050565b6000602082019050610cca6000830184610ca6565b92915050565b600080fd5b600080fd5b600080fd5b60008083601f840112610cf557610cf4610cd0565b5b8235905067ffffffffffffffff811115610d1257610d11610cd5565b5b602083019150836001820283011115610d2e57610d2d610cda565b5b9250929050565b60008060208385031215610d4c57610d4b610a55565b5b600083013567ffffffffffffffff811115610d6a57610d69610a5a565b5b610d7685828601610cdf565b92509250509250929050565b7f4e487b7100000000000000000000000000000000000000000000000000000000600052602260045260246000fd5b60006002820490506001821680610dc957607f821691505b602082108103610ddc57610ddb610d82565b5b50919050565b7f4e487b7100000000000000000000000000000000000000000000000000000000600052601160045260246000fd5b6000610e1c82610a21565b9150610e2783610a21565b9250828201905080821115610e3f57610e3e610de2565b5b92915050565b6000604082019050610e5a6000830185610a2b565b610e676020830184610a2b565b9392505050565b6000610e7982610a21565b9150610e8483610a21565b9250828203905081811115610e9c57610e9b610de2565b5b92915050565b600082905092915050565b7f4e487b7100000000000000000000000000000000000000000000000000000000600052604160045260246000fd5b60008190508160005260206000209050919050565b60006020601f8301049050919050565b600082821b905092915050565b600060088302610f3e7fffffffffffffffffffffffffffffffffffffffffffffffffffffffffffffffff82610f01565b610f488683610f01565b95508019841693508086168417925050509392505050565b6000819050919050565b6000610f85610f80610f7b84610a21565b610f60565b610a21565b9050919050565b6000819050919050565b610f9f83610f6a565b610fb3610fab82610f8c565b848454610f0e565b825550505050565b600090565b610fc8610fbb565b610fd3818484610f96565b505050565b5b81811015610ff757610fec600082610fc0565b600181019050610fd9565b5050565b601f82111561103c5761100d81610edc565b61101684610ef1565b81016020851015611025578190505b61103961103185610ef1565b830182610fd8565b50505b505050565b600082821c905092915050565b600061105f60001984600802611041565b1980831691505092915050565b6000611078838361104e565b9150826002028217905092915050565b6110928383610ea2565b67ffffffffffffffff8111156110ab576110aa610ead565b5b6110b58254610db1565b6110c0828285610ffb565b6000601f8311600181146110ef57600084156110dd578287013590505b6110e7858261106c565b86555061114f565b601f1984166110fd86610edc565b60005b8281101561112557848901358255600182019150602085019450602081019050611100565b86831015611142578489013561113e601f89168261104e565b8355505b6001600288020188555050505b50505050505050565b600082825260208201905092915050565b82818337600083830152505050565b60006111848385611158565b9350611191838584611169565b61119a83610b5c565b840190509392505050565b600060208201905081810360008301526111c0818486611178565b9050939250505056fea26469706673582212202b442556d3e246e7f37658f3612763f85fe584d3a31cb57d99337b2da5de491664736f6c63430008180033",
  "linkReferences": {},
  "deployedLinkReferences": {}
}